:100000000AC011C010C00FC00EC00DC00CC00BC084
:100010000AC009C008C011271FBFCFE5D0E0DEBF6E
:10002000CDBF02D036C0ECCFCF93DF9300D000D04D
:10003000CDB7DEB744E041B984E080B9CF5FDF4F90
:100040001993199319931883C450D040CF5FDF4F91
:100050004991599169917881C450D04040335547B6
:100060006107710750F70000CF5FDF4F4991599149
:1000700069917881C450D0404F5F5F4F6F4F7F4F81
:10008000CF5FDF4F4993599369937883C450D04031
:06009000DDCFF894FFCF64
:00000001FF
